:100000000C942A000C9434000C9434000C943400AA
:100010000C9434000C9434000C9434000C94340090
:100020000C9434000C9434000C9434000C94340080
:100030000C9434000C9434000C9434000C94340070
:100040000C9434000C9434000C9434000C94340060
:100050000C94340011241FBECFE5D8E0DEBFCDBF25
:100060000E9436000C945A000C9400008FEF8ABB5B
:1000700080ED90E00E94420081E090E00E94440008
:100080008BBBFACF82B9089584EC86BF06B607FE13
:10009000FDCF01C081B181B18036E1F784EC86BF2C
:1000A00006B607FEFDCF01C081B181B18038E1F70E
:0800B00083B10895F894FFCF1D
:00000001FF
