S00E00005461736B5F322E73726563F2
S11300000C942A000C9434000C9434000C943400A6
S11300100C9434000C9434000C9434000C9434008C
S11300200C9434000C9434000C9434000C9434007C
S11300300C9434000C9434000C9434000C9434006C
S11300400C9434000C9434000C9434000C9434005C
S11300500C94340011241FBECFE5D8E0DEBFCDBF21
S11300600E9436000C94BF000C94000081B38E7F74
S113007081BB82B38E7F82BB81B3806281BB81B33B
S1130080806481BB81B3806881BB80E0809B6DC04C
S11300908F5F8330F1F128F4813061F08230E9F030
S11300A060C0853009F455C008F44FC0863009F4A7
S11300B054C057C092B3906292BB2FE738E391E0EB
S11300C0215030409040E1F700C0000092B39F7B84
S11300D092BB92B39F7792BB46C092B3906292BB9D
S11300E02FE738E391E0215030409040E1F700C021
S11300F0000092B3906492BB2FE738E391E0215063
S113010030409040E1F700C0000092B39F7792BB6B
S11301102AC092B3906292BB2FE738E391E021505A
S113012030409040E1F700C0000092B3906492BB6D
S11301302FE738E391E0215030409040E1F700C0D0
S1130140000092B3906892BB0EC092B39F7792BBAB
S11301500AC092B39F7B92BB06C092B39F7D92BBB1
S113016002C012BA80E08099FECF2FEF34E39CE006
S1130170215030409040E1F700C0000087CFF89450
S1050180FFCFAB
S9030000FC
