S01800004932435F534C4156455F6472697665722E7372656389
S11300000C942A000C9434000C9434000C943400A6
S11300100C9434000C9434000C9434000C9434008C
S11300200C9434000C9434000C9434000C9434007C
S11300300C9434000C9434000C9434000C9434006C
S11300400C9434000C9434000C9434000C9434005C
S11300500C94340011241FBECFE5D8E0DEBFCDBF21
S11300600E9436000C9456000C94000080ED90E041
S11300700E944700C0E081E090E00E944900D1E086
S1130080DC0F8C2F90E00E944F00CD2FF4CF82B96B
S1130090089584EC86BF06B607FEFDCF089583B9A4
S11300A084E886BF06B607FEFDCF0895F894FFCF17
S9030000FC
