S01900004932435F4D41535445525F6472697665722E7372656337
S11300000C942A000C9434000C9434000C943400A6
S11300100C9434000C9434000C9434000C9434008C
S11300200C9434000C9434000C9434000C9434007C
S11300300C9434000C9434000C9434000C9434006C
S11300400C9434000C9434000C9434000C9434005C
S11300500C94340011241FBECFE5D8E0DEBFCDBF21
S11300600E9436000C94A2000C94000068E470E036
S113007080E090E00E945A00C0E02FEF84E39CE00F
S1130080215080409040E1F700C000000E946D00C4
S113009080ED0E94760081B18831E9F7D1E0DC0F70
S11300A08C2F0E94760081B18832E9F70E947D008E
S11300B0CD2FE3CF9B01AC0160E072E18AE790E0D1
S11300C00E948000DA01C9014097A109B109B695DF
S11300D0A7959795879580B9089584EA86BF06B653
S11300E007FEFDCF81B18830E9F7089583B984E82C
S11300F086BF06B607FEFDCF089584E986BF08953E
S1130100A1E21A2EAA1BBB1BFD010DC0AA1FBB1F17
S1130110EE1FFF1FA217B307E407F50720F0A21B89
S1130120B30BE40BF50B661F771F881F991F1A94F6
S113013069F760957095809590959B01AC01BD0120
S10B0140CF010895F894FFCFEC
S9030000FC
