:100000000C942A000C9434000C9434000C943400AA
:100010000C9434000C9434000C9434000C94340090
:100020000C9434000C9434000C9434000C94340080
:100030000C9434000C9434000C9434000C94340070
:100040000C9434000C9434000C9434000C94340060
:100050000C94340011241FBECFE5D8E0DEBFCDBF25
:100060000E9436000C94A3000C9400008FEF8ABB12
:1000700068E470E080E090E00E9454002FEF89E691
:1000800098E1215080409040E1F700C000000E94BC
:10009000670081ED0E94700080E00E947700C82F09
:1000A0000E947E00CBBBEACF9B01AC0160E072E115
:1000B0008AE790E00E948100DA01C9014097A10916
:1000C000B109B695A7959795879580B9089584EA63
:1000D00086BF06B607FEFDCF81B18830E9F70895E7
:1000E00083B984E886BF06B607FEFDCF089584EC89
:1000F00086BF06B607FEFDCF83B1089584E986BFAB
:100100000895A1E21A2EAA1BBB1BFD010DC0AA1F58
:10011000BB1FEE1FFF1FA217B307E407F50720F070
:10012000A21BB30BE40BF50B661F771F881F991FEB
:100130001A9469F760957095809590959B01AC0134
:0A014000BD01CF010895F894FFCF30
:00000001FF
