S01600004C434420616E64204B65797061642E737265636A
S11300000C942A000C9447000C9447000C9447006D
S11300100C9447000C9447000C9447000C94470040
S11300200C9447000C9447000C9447000C94470030
S11300300C9447000C9447000C9447000C94470020
S11300400C9447000C9447000C9447000C94470010
S11300500C94470011241FBECFE5D8E0DEBFCDBF0E
S113006010E0A0E6B0E0ECE8F3E002C005900D92E9
S1130070A037B107D9F720E0A0E7B0E001C01D9296
S1130080A037B207E1F70E94B3010C94C4010C94A9
S1130090000081B3807F81BB81B3806F81BB8FEF10
S11300A082BB08950F931F93CF93DF9340E050E0FA
S11300B099C032B3E0E6F0E081E090E08C0100808A
S11300C002C0000F111F0A94E2F7EC01028002C083
S11300D0CC0FDD1F0A94E2F7DC01048002C0AA0FF2
S11300E0BB1F0A94E2F7BC01068002C0660F771FAB
S11300F00A94E2F72C2F202B2A2B262B232B22BB0E
S113010022B3FA01EE0FFF1FE05AFF4F008002C036
S1130110880F991F0A94E2F78095822382BB60E0DE
S113012070E05AC080B3FB01EE0FFF1FE859FF4F88
S1130130208190E0022E02C0959587950A94E2F7FB
S113014080FD48C080B390E0022E02C0959587954B
S11301500A94E2F780FFF6CF41305105A9F038F058
S113016042305105F1F04330510541F133C061157E
S11301707105F1F161307105E9F162307105E1F168
S11301806330710539F53AC061157105C9F1613003
S11301907105C1F162307105B9F163307105D1F4B3
S11301A035C061157105A1F16130710599F16230B5
S11301B0710591F16330710569F430C06115710501
S11301C079F16130710571F16230710569F1633063
S11301D0710561F16F5F7F4F6430710508F4A2CF40
S11301E04F5F5F4F4430510508F463CF8EE41FC066
S11301F087E31DC084E31BC081E319C08FE317C0EC
S113020088E315C085E313C082E311C080E30FC007
S113021089E30DC086E30BC083E309C08DE307C007
S11302208FE205C08AE203C08DE201C08BE2DF9158
S1130230CF911F910F91089588B3877F88BB83ED79
S113024090E30197F1F700C0000088B3886088BB91
S113025008958AB38F708ABB88B3846088BB88B3DF
S11302608D7F88BB0E941C018AB3806F8ABB88B3D0
S11302708B7F88BB0895CF93C82F0E9429018BB32D
S11302808F709C2F907F892B8BBB88B3897F88BB11
S11302900E941C012BB330E1C39FC0011124922F93
S11302A09F70892B8BBB88B3897F88BB0E941C01FC
S11302B0CF910895CF93C82F8BB38F709C2F907FCD
S11302C0892B8BBB88B3826088BB88B38B7F88BB48
S11302D089EF90E00197F1F700C000000E941C0133
S11302E02BB330E1C39FC0011124922F9F70892B3F
S11302F08BBB88B3826088BB88B38B7F88BB89EF54
S113030090E00197F1F700C000000E941C01CF911A
S1130310089581E00E943B01089587E893E10197E5
S1130320F1F700C0000087B38E6087BB88B3817F7C
S113033088BB8FEF8ABB85EA9EE00197F1F700C086
S113034000000E94890182E00E943B0188E20E9431
S11303503B0186E00E943B0180E80E943B018FE064
S11303600E943B0108950E948D010E9449000E9451
S113037052008F3319F08E34D1F303C00E948901E7
S10F0380F6CF0E945A01F3CFF894FFCF8F
S113038C0400050006000700000001000200030041
S9030000FC
