:100000000C942A000C9436000C9452000C946E0050
:100010000C9434000C9434000C9434000C94340090
:100020000C9434000C9434000C9434000C94340080
:100030000C9434000C9434000C9434000C94340070
:100040000C9434000C9434000C9434000C94340060
:100050000C94340011241FBECFE5D8E0DEBFCDBF25
:100060000E948A000C94A7000C9400001F920F922B
:100070000FB60F9211242F938F939F9382B38062B8
:1000800082BB2FEF89E698E1215080409040E1F754
:1000900000C000009F918F912F910F900FBE0F9085
:1000A0001F9018951F920F920FB60F9211242F9345
:1000B0008F939F9382B3806482BB2FEF89E698E190
:1000C000215080409040E1F700C000009F918F9147
:1000D0002F910F900FBE0F901F9018951F920F92A7
:1000E0000FB60F9211242F938F939F9382B3806842
:1000F00082BB2FEF89E698E1215080409040E1F7E4
:1001000000C000009F918F912F910F900FBE0F9014
:100110001F90189585B78D6085BF85B78D7F85BF8A
:1001200084B78F7B84BF8BB7806E8BBF789481B38D
:10013000806E81BB82B38F7182BB2FEF89E698E11D
:10014000215080409040E1F700C00000F3CFF894C8
:02015000FFCFDF
:00000001FF
