:100000000C942A000C9434000C9434000C943400AA
:100010000C9434000C9434000C9434000C94340090
:100020000C9434000C9434000C9434000C94340080
:100030000C9434000C9434000C9434000C94340070
:100040000C9434000C9434000C9434000C94340060
:100050000C94340011241FBECFE5D8E0DEBFCDBF25
:100060000E943F000C9454000C94000081B58861FC
:1000700081BD11BC089581B58F6081BD089581B3A4
:10008000806481BB0E943B002FEF83ED90E3215001
:1000900080409040E1F700C0000092B380E48927DF
:0C00A00082BB0E943600EECFF894FFCF28
:00000001FF
