S022000041546D65676133325F5350495F4D41535445525F6472697665722E737265630D
S11300000C942A000C9434000C9434000C943400A6
S11300100C9434000C9434000C9434000C9434008C
S11300200C9434000C9434000C9434000C9434007C
S11300300C9434000C9434000C9434000C9434006C
S11300400C9434000C9434000C9434000C9434005C
S11300500C94340011241FBECFE5D8E0DEBFCDBF21
S11300600E9445000C9460000C94000087B3806BE0
S113007087BB87B3897F87BB8DB181658DB90895AF
S11300808FB9779BFECF8FB10895CF938FEF8ABB43
S11300900E943600CFEF0EC02FE986E891E0215090
S11300A080409040E1F700C000008C2F0E94400087
S11300B08BBBC150C111F0CF80E090E0CF91089587
S10700C0F894FFCFDE
S9030000FC
