:100000000C942A000C9434000C9434000C943400AA
:100010000C9434000C9434000C9434000C94340090
:100020000C9434000C9434000C9434000C94340080
:100030000C9434000C9434000C9434000C94340070
:100040000C9434000C9434000C9434000C94340060
:100050000C94340011241FBECFE5D8E0DEBFCDBF25
:100060000E9445000C9459000C94000087B38064F2
:1000700087BB87B38F7487BB8DB180648DB90895BA
:100080008FB9779BFECF8FB108958FEF8ABB0E9407
:100090003600C0E02FE986E891E021508040904092
:1000A000E1F700C000008C2F0E9440008BBBCF5FA7
:0600B000F1CFF894FFCF30
:00000001FF
