:100000000C942A000C9434000C9434000C943400AA
:100010000C9434000C9434000C9434000C94340090
:100020000C9434000C9434000C9434000C94340080
:100030000C9434000C9434000C9434000C94340070
:100040000C9434000C9434000C9434000C94340060
:100050000C94340011241FBECFE5D8E0DEBFCDBF25
:100060000E944A000C9476000C94000087B3806BC9
:1000700087BB8DB181658DB9089598B39F7E98BB7C
:100080008FB9779BFECF6FB9779BFECF88B3806126
:1000900088BB08950E9436006FEF89E00E943D0002
:1000A0006FE08AE00E943D0067E08BE00E943D0027
:1000B00061E08CE00E943D0060E070E0C1E0D0E0D3
:1000C00008C08B010F5F1F4F8C2F0E943D002196AF
:1000D000B801C930D105A8F32FE38DE093E021509A
:1000E00080409040E1F700C00000E8CFF894FFCFD7
:00000001FF
