S01200004144435F6472697665722E737265635F
S11300000C942A000C9447000C9447000C9447006D
S11300100C9447000C9447000C9447000C94470040
S11300200C9447000C9447000C9447000C94470030
S11300300C9447000C9447000C9447000C94470020
S11300400C9447000C9447000C9447000C94470010
S11300500C94470011241FBECFE5D8E0DEBFCDBF0E
S113006010E0A0E6B0E0EAEAFCE002C005900D92E0
S1130070AE38B107D9F720E0AEE8B0E001C01D9278
S1130080A439B207E1F70E9457010C9453060C946B
S1130090000088B3877F88BB83ED90E30197F1F775
S11300A000C0000088B3886088BB08958AB38F704D
S11300B08ABB88B3846088BB88B38D7F88BB0E9469
S11300C049008AB3806F8ABB88B38B7F88BB08954D
S11300D0CF93C82F0E9456008BB38F709C2F907FB4
S11300E0892B8BBB88B3897F88BB0E9449002BB3C3
S11300F030E1C39FC0011124922F9F70892B8BBBC9
S113010088B3897F88BB0E944900CF910895CF931B
S1130110C82F8BB38F709C2F907F892B8BBB88B398
S1130120826088BB88B38B7F88BB89EF90E001979E
S1130130F1F700C000000E9449002BB330E1C39FD7
S1130140C0011124922F9F70892B8BBB88B38260CE
S113015088BB88B38B7F88BB89EF90E00197F1F768
S113016000C000000E944900CF91089581E00E94E0
S11301706800089587E893E10197F1F700C0000053
S113018087B38E6087BB88B3817F88BB8FEF8ABBC0
S113019085EA9EE00197F1F700C000000E94B600D6
S11301A082E00E94680088E20E9468008CE00E945D
S11301B0680086E00E94680081E00E94680082E096
S11301C00E94680088E20E94680086E00E9468003D
S11301D080E80E9468008FE00E94680008958130E2
S11301E039F4603168F480E8860F0E94680008954D
S11301F0823031F4603120F480EC860F0E94680074
S113020008950F931F93CF93DF938C01C0E0D0E048
S113021018C021960F5F1F4F0E948700C031D1057F
S113022029F460E081E00E94EF000BC0C032D105E8
S113023041F40E94B60060E080E00E94EF00C0E05C
S1130240D0E0F80180818111E4CFDF91CF911F913B
S11302500F9108950F931F93CF93DF93CDB7DEB71C
S113026027970FB6F894DEBF0FBECDBF9F938F9331
S11302708AE690E09F938F938E010F5F1F4F1F9329
S11302800F930E947503C8010E9401010F900F9003
S11302900F900F900F900F9027960FB6F894DEBF33
S11302A00FBECDBFDF91CF911F910F91089565E0EF
S11302B081E00E94AA010E94BA0060E081E00E94ED
S11302C0EF008CE690E00E94010160E082E00E9471
S11302D0EF008CE790E00E9401016CE081E00E9455
S11302E0EF0087E00E94CE01EC010E942A01C83E83
S11302F0D34038F46FE081E00E94EF0080E20E9476
S113030087006CE082E00E94EF0087E00E94CE014B
S1130310BC0180E090E00E947A0220E030EC4FE7DC
S113032054E40E94D90120E030E048EC52E40E94F9
S113033008030E944B02EB01CB010E942A01C43640
S1130340D10558F66EE082E00E94EF0080E20E9440
S11303508700C3CF813059F018F0823079F014C08F
S113036087B18F7B87B987B18F7787B90DC087B184
S1130370806487B987B18F7787B906C087B18064F5
S113038087B987B1806887B986B1806886B986B134
S1130390887F86B986B1682B66B9089597B1892B91
S11303A087B986B1806486B93699FECF84B195B198
S11303B008950E94ED010C94CE020E94C70258F0E9
S11303C00E94C00240F029F45F3F29F00C94B70268
S11303D051110C9402030C94BD020E94DF0268F3D5
S11303E09923B1F3552391F3951B550BBB27AA27EA
S11303F062177307840738F09F5F5F4F220F331F24
S1130400441FAA1FA9F335D00E2E3AF0E0E832D0EB
S113041091505040E695001CCAF72BD0FE2F29D0EE
S1130420660F771F881FBB1F261737074807AB07C0
S1130430B0E809F0BB0B802DBF01FF2793585F4F35
S11304403AF09E3F510578F00C94B7020C940203E5
S11304505F3FE4F3983ED4F3869577956795B79517
S1130460F7959F5FC9F7880F911D9695879597F922
S11304700895E1E0660F771F881FBB1F621773079B
S11304808407BA0720F0621B730B840BBA0BEE1FB0
S113049088F7E09508950E94E70288F09F5798F046
S11304A0B92F9927B751B0F0E1F0660F771F881F75
S11304B0991F1AF0BA95C9F714C0B13091F00E948F
S11304C00103B1E008950C940103672F782F882766
S11304D0B85F39F0B93FCCF3869577956795B395B6
S11304E0D9F73EF490958095709561957F4F8F4F25
S11304F09F4F0895E89409C097FB3EF4909580952A
S1130500709561957F4F8F4F9F4F9923A9F0F92FD5
S113051096E9BB279395F695879577956795B79553
S1130520F111F8CFFAF4BB0F11F460FF1BC06F5F39
S11305307F4F8F4F9F4F16C0882311F096E911C04B
S1130540772321F09EE8872F762F05C0662371F06C
S113055096E8862F70E060E02AF09A95660F771F80
S1130560881FDAF7880F9695879597F9089597F974
S11305709F6780E870E060E008959FEF80EC089545
S113058000240A941616170618060906089500246E
S11305900A9412161306140605060895092E0394E8
S11305A0000C11F4882352F0BB0F40F4BF2B11F45C
S11305B060FF04C06F5F7F4F8F4F9F4F089557FDBB
S11305C09058440F551F59F05F3F71F04795880FBD
S11305D097FB991F61F09F3F79F087950895121654
S11305E013061406551FF2CF4695F1DF08C0161600
S11305F017061806991FF1CF8695710561050894B1
S11306000895E894BB2766277727CB0197F90895C7
S11306100E941B030C94CE020E94C00238F00E9478
S1130620C70220F0952311F00C94B7020C94BD027C
S113063011240C9402030E94DF0270F3959FC1F30E
S1130640950F50E0551F629FF001729FBB27F00D7C
S1130650B11D639FAA27F00DB11DAA1F649F6627D1
S1130660B00DA11D661F829F2227B00DA11D621F20
S1130670739FB00DA11D621F839FA00D611D221FDA
S1130680749F3327A00D611D231F849F600D211DBE
S1130690822F762F6A2F11249F5750409AF0F1F041
S11306A088234AF0EE0FFF1FBB1F661F771F881FAA
S11306B091505040A9F79E3F510580F00C94B70229
S11306C00C9402035F3FE4F3983ED4F38695779548
S11306D06795B795F795E7959F5FC1F7FE2B880F50
S11306E0911D9695879597F90895A0E0B0E0EBE702
S11306F0F3E00C942C06AE014B5F5F4FFA0161915D
S11307007191AF0180919000909191000E948B03B0
S1130710E2E00C944806ABE0B0E0E1E9F3E00C94CD
S11307201C066C017B018A01FC01178216828381FD
S113073081FFCCC1CE0101963C01F6019381F70102
S113074093FD859193FF81917F01882309F4BAC1B8
S1130750853239F493FD859193FF81917F01853230
S113076029F4B60190E00E948205E7CF912C212C58
S1130770312CFFE1F315D8F08B3279F038F4803264
S113078079F08332A1F4232D20611DC08D3261F0F4
S1130790803369F4232D216016C0832D8260382EA6
S11307A0E32DE4603E2E2AC0F32DF8601DC037FC13
S11307B02DC020ED280F2A3040F08E32B9F436FCDB
S11307C081C1232D2064322E19C036FE06C08AE072
S11307D0989E200D1124922E11C0EAE02E9E200D29
S11307E01124222EF32DF0623F2E08C08C3621F402
S11307F0832D8068382E02C0883641F4F70193FDBA
S1130800859193FF81917F018111B3CF982F9F7DB3
S11308109554933028F40C5F1F4F9FE399830DC0C8
S1130820833631F0833771F0833509F059C021C024
S1130830F801808189830E5F1F4F88248394912C53
S1130840530113C02801F2E04F0E511CF801A0809F
S1130850B18036FE03C0692D70E002C06FEF7FEFF8
S1130860C5010E9477054C018201F32DFF773F2ECD
S113087016C0280122E0420E511CF801A080B1806C
S113088036FE03C0692D70E002C06FEF7FEFC50133
S11308900E946C054C01F32DF0683F2E820133FC5D
S11308A01BC0822D90E088169906B0F4B60180E250
S11308B090E00E9482052A94F4CFF50137FC8591DB
S11308C037FE81915F01B60190E00E9482052110FC
S11308D02A9421E0821A91088114910471F7E8C0E6
S11308E0843611F0893641F5F80137FE07C060817E
S11308F07181828193810C5F1F4F08C06081718177
S1130900072E000C880B990B0E5F1F4FF32DFF76FB
S11309103F2E97FF09C090958095709561957F4F04
S11309208F4F9F4FF0683F2E2AE030E0A3010E94D2
S1130930BE05882E861845C0853731F4232D2F7EB9
S1130940B22E2AE030E025C0932D997FB92E8F3640
S1130950C1F018F4883579F0B5C0803719F08837BC
S113096021F0B0C0E92FE061BE2EB4FE0DC0FB2D16
S1130970F460BF2E09C034FE0AC0292F2660B22EAF
S113098006C028E030E005C020E130E002C020E1EC
S113099032E0F801B7FE07C06081718182819381E2
S11309A00C5F1F4F06C06081718180E090E00E5F94
S11309B01F4FA3010E94BE05882E8618FB2DFF77CA
S11309C03F2E36FE0DC0232D2E7FA22E891458F4FF
S11309D034FE0BC032FC09C0832D8E7EA82E05C0C8
S11309E0B82CA32C03C0B82C01C0B92CA4FE0FC092
S11309F0FE01E80DF11D8081803321F49A2D997E4A
S1130A00A92E09C0A2FE06C0B394B39404C08A2DD3
S1130A10867809F0B394A3FC11C0A0FE06C0B214FA
S1130A2088F4280C922C9B180EC0B21460F4B60102
S1130A3080E290E00E948205B394F7CFB21418F4D8
S1130A402B1802C0982C212CA4FE10C0B60180E300
S1130A5090E00E948205A2FE17C0A1FC03C088E7B3
S1130A6090E002C088E590E0B6010CC08A2D86783B
S1130A7059F0A1FE02C08BE201C080E2A7FC8DE226
S1130A80B60190E00E948205891438F4B60180E32F
S1130A9090E00E9482059A94F7CF8A94F301E80DBE
S1130AA0F11D8081B60190E00E9482058110F5CF8E
S1130AB0222009F442CEB60180E290E00E94820531
S1130AC02A94F6CFF6018681978102C08FEF9FEFBB
S1130AD02B96E2E10C943806FC01059061507040BD
S1130AE00110D8F7809590958E0F9F1F0895FC01F3
S1130AF06150704001900110D8F7809590958E0F49
S1130B009F1F08950F931F93CF93DF93FB012381BE
S1130B1021FD03C08FEF9FEF2CC022FF16C046813A
S1130B205781248135814217530744F4A081B18150
S1130B309D012F5F3F4F318320838C932681378122
S1130B402F5F3F4F3783268314C08B01EC01FB01D9
S1130B500084F185E02D0995892BE1F6D8011696DC
S1130B608D919C911797019617969C938E93169747
S1130B70CE01DF91CF911F910F910895FA01AA2719
S1130B80283051F1203181F1E8946F936E7F6E5FCC
S1130B907F4F8F4F9F4FAF4FB1E03ED0B4E03CD07A
S1130BA0670F781F891F9A1FA11D680F791F8A1F5D
S1130BB0911DA11D6A0F711D811D911DA11D20D0C4
S1130BC009F468943F912AE0269F11243019305D7E
S1130BD03193DEF6CF010895462F4770405D41936F
S1130BE0B3E00FD0C9F7F6CF462F4F70405D4A33BC
S1130BF018F0495D31FD4052419302D0A9F7EACF84
S1130C00B4E0A6959795879577956795BA95C9F7B2
S1130C1000976105710508959B01AC010A2E0694A5
S1130C205795479537952795BA95C9F7620F731F5E
S1130C30841F951FA01D08952F923F924F925F929B
S1130C406F927F928F929F92AF92BF92CF92DF92D8
S1130C50EF92FF920F931F93CF93DF93CDB7DEB73D
S1130C60CA1BDB0B0FB6F894DEBF0FBECDBF0994D1
S1130C702A88398848885F846E847D848C849B8428
S1130C80AA84B984C884DF80EE80FD800C811B8136
S1130C90AA81B981CE0FD11D0FB6F894DEBF0FBE65
S10D0CA0CDBFED010895F894FFCFD5
S1130CAA2D00257325642E253034640041444320E5
S1130CBA76616C7565203A202020200050657220E8
S1110CCA76616C7565203A20202020250000FC
S9030000FC
